{
  "transactions": [
    {
      "hash": "0xa2ef32955b5735838ec4b0453f84f4c5583c47f94f12a84ab175dab52f5a5950",
      "transactionType": "CALL",
      "contractName": null,
      "contractAddress": "0x1b0f99bfbd04fb9b5835a2699b014b467be291be",
      "function": "mintNft(string)",
      "arguments": [
        "ipfs://bafybeig37ioir76s7mg5oobetncojcm3c3hxasyd4rvid4jqhy4gkaheg4/?filename=0-PUG.json"
      ],
      "transaction": {
        "from": "0x8c673b382e8b1851fbf133569a2fb7b49f0d0328",
        "to": "0x1b0f99bfbd04fb9b5835a2699b014b467be291be",
        "gas": "0x3d5f6",
        "value": "0x0",
        "input": "0xda86f4a900000000000000000000000000000000000000000000000000000000000000200000000000000000000000000000000000000000000000000000000000000057697066733a2f2f62616679626569673337696f6972373673376d67356f6f6265746e636f6a636d3363336878617379643472766964346a71687934676b61686567342f3f66696c656e616d653d302d5055472e6a736f6e000000000000000000",
        "nonce": "0x1c",
        "chainId": "0xaa36a7"
      },
      "additionalContracts": [],
      "isFixedGasLimit": false
    }
  ],
  "receipts": [
    {
      "status": "0x1",
      "cumulativeGasUsed": "0x17e26d9",
      "logs": [
        {
          "address": "0x1b0f99bfbd04fb9b5835a2699b014b467be291be",
          "topics": [
            "0xddf252ad1be2c89b69c2b068fc378daa952ba7f163c4a11628f55a4df523b3ef",
            "0x0000000000000000000000000000000000000000000000000000000000000000",
            "0x0000000000000000000000008c673b382e8b1851fbf133569a2fb7b49f0d0328",
            "0x0000000000000000000000000000000000000000000000000000000000000000"
          ],
          "data": "0x",
          "blockHash": "0x2b90913f17f8015be8da00d3164afdbebe8ecaebb31ca3ba0adb849f7a627892",
          "blockNumber": "0x6dd0c8",
          "transactionHash": "0xa2ef32955b5735838ec4b0453f84f4c5583c47f94f12a84ab175dab52f5a5950",
          "transactionIndex": "0x1ae",
          "logIndex": "0x125",
          "removed": false
        }
      ],
      "logsBloom": "0x00000000000000000000000000000000000000000000000000000000000000000000000000000000000000000000000000000000000000000000000000000000000000000000100000000008000000000000000000000000000000000000000000000000020000000000000000000800000000010000000000000010000000000000000000000000000000000000000000000000000000000000008000000000000000000000000000000000000000000000000000000000100000000000000000000002000000000000000000008000000000000000000000000000000020000000000000000000000000000000000200000000000000000000000000000000",
      "type": "0x2",
      "transactionHash": "0xa2ef32955b5735838ec4b0453f84f4c5583c47f94f12a84ab175dab52f5a5950",
      "transactionIndex": "0x1ae",
      "blockHash": "0x2b90913f17f8015be8da00d3164afdbebe8ecaebb31ca3ba0adb849f7a627892",
      "blockNumber": "0x6dd0c8",
      "gasUsed": "0x2c6ed",
      "effectiveGasPrice": "0x17a309129",
      "from": "0x8c673b382e8b1851fbf133569a2fb7b49f0d0328",
      "to": "0x1b0f99bfbd04fb9b5835a2699b014b467be291be",
      "contractAddress": null
    }
  ],
  "libraries": [],
  "pending": [],
  "returns": {},
  "timestamp": 1733153018,
  "chain": 11155111,
  "commit": "facb6b8"
}